:020000040800F2
:10000000987F0220A9010008AB610008574C000846
:10001000A5610008810B000807A10008000000008E
:10002000000000000000000000000000957B0008B8
:10003000830B0008000000004B640008297C0008C6
:10004000C3010008C3010008C3010008C301000880
:10005000C3010008C3010008850B00088B0B0008D2
:10006000C3010008C3010008910B0008C301000888
:10007000C3010008C3010008C3010008C301000850
:10008000C3010008C3010008C3010008C301000840
:10009000C3010008C3010008C3010008970B000852
:1000A000C3010008C3010008C3010008C301000820
:1000B000C3010008C301000800000000C3010008DC
:1000C000C3010008C3010008C3010008C301000800
:1000D000C3010008C3010008BD8D0008C30100086A
:1000E000C3010008C3010008000000000000000078
:1000F0000000000000000000000000000000000000
:1001000000000000C301000800000000C301000857
:10011000C301000800000000C30100080000000047
:10012000C3010008C3010008C3010008C30100089F
:10013000C3010008C3010008C3010008000000005B
:10014000C3010008C3010008C301000885A000081E
:10015000C3010008C3010008C3010008C30100086F
:10016000C3010008C3010008C3010008000000002B
:1001700000000000C30100080000000000000000B3
:10018000C3010008C3010008C3010008C30100083F
:10019000C3010008DFF80CD000F086FB00480047E0
:1001A00029F50008987F0220064880470648004746
:1001B000FEE7FEE7FEE7FEE7FEE7FEE7FEE7FEE717
:1001C000FEE7FEE7197D0008950100082DE9F05FC4
:1001D0000546002092469B468846064681464024B6
:1001E0001BE0284641464746224600F08EFA534619
:1001F0005A46C01A914110D311461846224600F0C3
:1002000075FA2D1A67EB01084F462246012000219E
:1002100000F06CFA17EB00094E41201EA4F1010416
:10022000DFDC484631462A464346BDE8F09F40EAB7
:1002300001039B0703D009E008C9121F08C0042A64
:10024000FAD203E011F8013B00F8013B521EF9D24B
:100250007047D2B201E000F8012B491EFBD2704773
:100260000022F6E710B513460A4604461946FFF782
:10027000F0FF204610BD2DE9FE4F804681EA0300C5
:10028000C00F0C46009021F0004123F00045B8EB70
:100290000200A94105D24046214690461C460B4625
:1002A000024623F00040104347D0270DC7F30A0051
:1002B000C3F30A510290401A019040286BDAC3F34D
:1002C000130040F4801B0098924620B10023D2EB2B
:1002D000030A63EB0B0B01985946C0F140025046EC
:1002E00000F004FA06460D4650465946019A00F0C1
:1002F0001CFA10EB08006141002487EA115284EADD
:10030000E7731A4340D0009A62B3019A012A4FEA78
:10031000075215DC001B61EB02014FF0004202EABC
:100320000752CDE90042001C41F5801132462B46B0
:1003300000F053FA03B0BDE8F08F40462146F9E7DC
:10034000001B61EB0201001C41F5801300185B41AA
:100350002018A2F5001747EB030140EAD570B61943
:100360006D4111E06D084FEA360645EAC0754FEA67
:100370000752001B61EB0201001C41F58011490886
:100380004FEA30000019514132462B4603B0BDE818
:10039000F04F00F013BA0098012240000023D0EB88
:1003A000020263EBE073009821464FEAE074B8EB79
:1003B000000061EB0401E9E783F000435BE781F0B3
:1003C000004158E72DE9FE4F81EA030404F00044A0
:1003D00021F0004100944FF0000B23F0004350EA5D
:1003E00001045ED052EA03045BD0C3F30A54C1F3A4
:1003F0000A552C44A4F2F3340194A0FB0254C1F337
:10040000130141F48011C3F3130343F4801301FB80
:10041000024400FB034E840A970A44EA815447EAE7
:100420008357A4FB076802958D0A05FB07854FEAF1
:10043000932C04FB0C542705029D4FEA065847EA0B
:100440001637B5EB08056EEB070C870E920E47EAE0
:10045000811742EA8312A7FB0201B6EB0B0164EBA2
:1004600000042B0D43EA0C335E1844EB1C50DA46B3
:100470005146E7FB0201C5F313044FEA0B3343EA8D
:1004800014534FEA0432019C43EA0603A4F10C041E
:100490000294009CCDE900B400F09FF903B0BDE8E0
:1004A000F08F00200146F9E72DE9F04D81EA0304C1
:1004B00004F0004B21F0004514464FF0000A23F0F1
:1004C000004150EA050220D054EA01021DD0C5F3D4
:1004D0000A570246C5F31303C1F31300C1F30A56CA
:1004E00040F4801543F48013A7EB0608101BD64692
:1004F00008F2FD3873EB050002D308F1010801E0B2
:1005000092185B41B8F1000F03DA00200146BDE804
:10051000F08D00204FF48011064684460EE0171B34
:1005200073EB050705D3121B63EB050306434CEA87
:10053000010C49084FEA300092185B4150EA01076C
:10054000EDD152EA030012D082EA040083EA0501E9
:10055000084305D0101BAB4106D20122002306E060
:1005600000224FF0004302E06FF0010253101AEB3B
:1005700006004CEB085110EB0A0041EB0B01BDE803
:10058000F04D00F01BB90EB5C10F80EAE0700844D1
:10059000CA07002140F233438DE80E000A460B469D
:1005A00000F01BF903B000BD0EB540F233410291DB
:1005B0000021CDE900110A460B4600F00EF903B008
:1005C00000BD70B5C1F30A5201F000450024C1F32B
:1005D000130140F2FF3341F480119A4201DA002006
:1005E00070BD40F233439A42A2F2334203DC5242DE
:1005F00000F08BF800E090402C43F1D0404270BDF9
:1006000000F0004230F000400AD0C10D01F56071E9
:10061000C0F3160042EA0151C20840071143704777
:10062000002001467047000030B5041E71F100043F
:1006300004DB4FF00044404264EB0101141E73F1EF
:10064000000405DB1C464FF00043524263EB0403F9
:100650008B4208BF824230BD30B5041E71F10004E8
:1006600004DB4FF00044404264EB0101141E73F1BF
:10067000000405DB1C464FF00043524263EB0403C9
:10068000994208BF904230BD01F0004330B421F0E0
:10069000004150EA010206D00A0DA2F56072C1F3D2
:1006A0001301002A02DC30BC00207047440F44EAEA
:1006B000C104C100E01830BC00EBC25000F047B8E4
:1006C00030B50B46014600202022012409E021FA22
:1006D00002F59D4205D303FA02F5491B04FA02F51F
:1006E0002844151EA2F10102F1DC30BD202A04DBF2
:1006F000203A00FA02F1002070479140C2F1200335
:1007000020FA03F3194390407047202A04DB203A73
:1007100021FA02F00021704721FA02F3D040C2F121
:1007200020029140084319467047202A06DBCB1768
:10073000203A41FA02F043EAE07306E041FA02F39C
:10074000D040C2F120029140084319467047002969
:10075000A8BF7047401C490008BF20F00100704747
:1007600010B4B0FA80FC00FA0CF050EA010404BFA7
:1007700010BC704749B1CCF1200421FA04F411FAFD
:100780000CF118BF012121430843A3EB0C01CB1D41
:100790004FEA00614FEA102042BF002010BC7047B2
:1007A00000EBC35010440029A4BF10BC7047401C8C
:1007B000490008BF20F0010010BC704710B5141E9E
:1007C00073F1000408DA401C41F1000192185B410A
:1007D0001A4301D120F0010010BD2DE9F04D9246E1
:1007E0009B4611B1B1FA81F202E0B0FA80F22032F8
:1007F0009046FFF77BFF04460F4640EA0A0041EAB5
:100800000B0153465A46084313D0114653EA0100E0
:1008100019D0C8F140025046FFF777FF05460E4653
:10082000504659464246FFF761FF084305D0012074
:1008300004E020463946BDE8F08D0020054346EA35
:10084000E0762C4337430A986305E40AA0EB0800DE
:100850000022FD0A44EA47540A3002D5002001462E
:10086000E9E7010510196941DDE908450019694109
:10087000BDE8F04DA2E7C1F30A52C1F3130140F203
:10088000FF3341F480119A4202DA0020014670479A
:1008900040F233439A42A2F2334202DC5242FFF763
:1008A00034BFFFF723BF0000064C074D06E0E068A9
:1008B00040F0010394E8070098471034AC42F6D3A7
:1008C000FFF76CFC086B0108286B010870B58C18E9
:1008D00010F8015B15F0070301D110F8013B2A1154
:1008E00006D110F8012B03E010F8016B01F8016B41
:1008F0005B1EF9D12B0705D40023521E0DD401F83D
:10090000013BFAE710F8013BCB1A921C03E013F805
:10091000015B01F8015B521EF9D5A142D8D300203A
:1009200070BD00002DE9F041044600270D46006827
:1009300004F042FB0646206804F03AFB304359D0ED
:100940002068C1682C4E890105D5617E012902D13C
:10095000217E01290BD0022D1DD0206804F02CFB34
:10096000B8B120688168C1F3400169B111E0012587
:10097000224902E08F422ED27F1C0268D2435206E7
:10098000F8D440210160E8E78168314041F010016E
:100990008160012D11D0206804F00AFB48B1206865
:1009A0008168C1F3400121B98168314041F02001E3
:1009B0008160022D08D0032D04D0042500F0B6FE7E
:1009C000064613E00C25F9E70825F7E700F0AEFE30
:1009D000801B05280AD9A06D40F01000A065E06DCD
:1009E00040F00100E0650120BDE8F08120688068EA
:1009F0002842EBD10020F7E7C0FFFF7F000040A3B3
:100A000070B50446006881688268C1F3400112F045
:100A1000010F24D019BB816801F00D01012910D10B
:100A20008168104A1140891C816021680320086098
:100A300000F07CFE05460EE000F078FE401B022828
:100A400009D9A06D40F01000A065E06D40F00100F4
:100A5000E065012070BD20688068C007ECD10020EF
:100A600070BD0000C0FFFF7F70B50446006881685C
:100A700011F0010F28D18168144A114215D1816803
:100A8000D5432940491C816000F050FE064616E01F
:100A9000816811F0010F03D181682940491C8160F0
:100AA00000F044FE801B022809D9A06D40F0100020
:100AB000A065E06D40F00100E065012070BD206898
:100AC0000168C943C907E3D1002070BD3F00008021
:100AD00010B50421024800F01FFE012010BD0000E7
:100AE000000400480146014802F0B2BFA8050020FA
:100AF00010B5044802F0BEFF042801D0012010BD4B
:100B0000002010BDA805002010B500F00BF801284A
:100B100001D0022010BDBDE81040014802F0C0BF66
:100B2000A805002008B501208DF80000FFF7D0FFD0
:100B300010B900208DF800009DF8000008BD0000ED
:100B400038B50024009313460A460146034803F0D3
:100B50004FF800B10124204638BD0000A805002050
:100B600038B50024009313460A460146034803F0B3
:100B70003BF900B10124204638BD0000A805002043
:100B8000FEE77047012000F0F7BC022000F0F4BC43
:100B9000102000F0F1BC10B5202000F0EDFC40204A
:100BA00000F0EAFCBDE810404FF4807000F0E4BCB7
:100BB00010B50DF0CFFF642000F022FCBDE810401E
:100BC00001F0B6BA002200F001B8000030B50E4BBB
:100BD000054601205C7A002C14D1587A1C54587AAE
:100BE00003EB800045605D7A03F108002A54587ACF
:100BF000421C5A72303008703A2048702F2088709A
:100C0000CC70002030BD0000441B00202DE9F84FBF
:100C100000270446009790F85400DFF8CC930D4667
:100C2000B846012811D0012684F85460206804F0E9
:100C3000C3F960B1A06D40F02000A0655FF001072E
:100C400084F854803846BDE8F88F0220FBE76868D6
:100C50000C23052812D8022807D0032807D004281F
:100C600007D0052807D0062007E06B6006E01220B9
:100C700003E0182001E04FF480706860D5E900219E
:100C8000206803EA91131844036B01F01F014FF031
:100C90001F0C0CFA01FCC2F3846223EA0C038A40A5
:100CA00013430363206804F087F98246206804F048
:100CB0007FF95AEA000025D1AA6829682068B2F1B4
:100CC000004F20D004F084F92068416921F00041F0
:100CD000416120686969C268C2F3C1025200914053
:100CE0002A69042A17D000EB82002B68026EDFF815
:100CF000FCC203F0F84302EA0C020B431A4342F031
:100D0000004101667AE0002204F062F9206841693E
:100D100041F00041DCE7002104F044F94003206881
:100D20004FF0000172D004F03DF990FAA0F0B0FA53
:100D300080F1286842036ED090FAA0F0B0FA80F0FB
:100D4000814204D100221146206804F050F90121AB
:100D5000206804F027F9400320684FF001015DD0BE
:100D600004F020F990FAA0F0B0FA80F1286842036C
:100D700059D090FAA0F0B0FA80F0814204D100225C
:100D80000121206804F033F90221206804F00AF9F7
:100D9000400320684FF0020148D004F003F990FAB4
:100DA000A0F0B0FA80F12868420344D090FAA0F095
:100DB000B0FA80F0814204D100220221206804F0C0
:100DC00016F90321206804F0EDF8400320684FF085
:100DD000030133D004F0E6F890FAA0F0B0FA80F105
:100DE000286842032FD090FAA0F0B0FA80F0814238
:100DF00004D100220321206804F0F9F820688168FA
:100E000011F0010F22D0ABE000E004E004F0CAF8DA
:100E1000C0F384618DE7C0F3846091E704F0C2F809
:100E2000C0F38461A2E7C0F38460A6E704F0BAF8D7
:100E3000C0F38461B7E7C0F38460BBE704F0B2F8A5
:100E4000C0F38461CCE7C0F38460D0E72A7B2968D3
:100E500050F8B03FC1F3120C23EA0C0302F0180C57
:100E6000634A22FA0CF20A4013430360E9684945D9
:100E700076D1286841031BD090FAA0F1B1FA81F134
:100E8000491C01F01F0109294FEA403131D80029DE
:100E900011D090FAA0F1B1FA81F100BF01F1010186
:100EA00001F01F0106FA01F608D1C0F3846109E0E0
:100EB000C0F38461E4E7C0F38461EFE790FAA0F146
:100EC000B1FA81F101F1010101F01F0146EA8161EE
:100ED00002D1C0F3846003E090FAA0F0B0FA80F091
:100EE00000F1010000F01F0000EB400041EA00515A
:100EF00032E000290ED090FAA0F1B1FA81F100BFE2
:100F000001F1010101F01F0106FA01F605D1C0F35C
:100F1000846106E0C0F38461F2E790FAA0F1B1FACF
:100F200081F101F1010101F01F0146EA816102D165
:100F3000C0F3846003E090FAA0F0B0FA80F000F112
:100F4000010000F01F002B4A00EB400002EB0050B4
:100F500041EA000141F00071AA68206804F038F805
:100F600025482A6802423FF46BAE24488168244D2C
:100F7000244B01F0E071AA421AD10D0218D4226864
:100F80009A427FF45DAE826841F4000122F0E07283
:100F90000A4382601C481D490068B0FBF1F000EB79
:100FA0004000800000E0401E00900028FBD147E692
:100FB000174DAA4207D1CD0105D422689A42F6D135
:100FC00041F080710AE06FF00045EA42EFD14A0239
:100FD000EDD422689A42EAD141F48001826822F07D
:100FE000E0720A4382602BE600007F4000F0FF03BE
:100FF000FFFF0700000020FE0000088000030450EF
:10100000000052C7000004506C020020400D030095
:10101000000084CB0068006C70470000F8B54FF00A
:10102000000504002E46009502D0A06D10B107E027
:101030000120F8BD204600F0C9F8E66584F8546048
:1010400020688168C1F3407119B18168574A114025
:10105000816020688168C1F3007179B98168544A60
:10106000114041F080518160524853490068B0FB03
:10107000F1F000E0401E00900028FBD1206881685C
:10108000C1F3007141B9A16D41F01001A165E16D9D
:1010900041F00101E165012503F08EFFA16D01F032
:1010A00010010143A06D05D040F01000A06501259E
:1010B0002846F8BD20F4807040F00200A06520684A
:1010C000806810F0010F0BD13C48806810F0010FD0
:1010D00006D13B4960688A6822F47C1202438A6028
:1010E000E168606B627E0843A16841EA42310843CF
:1010F00094F8201040EA0140012904D1A18C314A22
:1011000002EB41410843A16A29B101F47071E26A1E
:10111000014342EA01002168CA682B4B1A4002438E
:10112000CA60206803F048FF0646206803F040FFCD
:10113000304317D1207E94F83010800340EA4100FC
:10114000E16C08432168CA6844F206039A430243EB
:10115000CA6094F8380001280CD02068016921F099
:1011600001010161206901282068016B21F00F0154
:1011700011D013E0D4E90F010843D4E9111211434F
:10118000084321680A6940F2FC739A43104340F017
:1011900001000861E6E7E269521E11430163A06D98
:1011A00020F0020040F00100A06581E7C0FFFF5F72
:1011B000C0FFFF7F6C020020400D030000000450C0
:1011C000000304500000FEFF07C0F0FF70B586B0BA
:1011D000044614216846FFF743F8174920688842FF
:1011E00028D11648C16C41F40051C164C16C01F4AE
:1011F00000510591C16C41F00101C164C16C01F065
:1012000001010591C16C41F00401C164C06C10245E
:1012100000F0040005900B2500268DE8700069465B
:101220004FF0904000F0B4F98DE870006946044832
:1012300000F0AEF906B070BD00000450001002408E
:10124000000800482DE9F041044640690D46082891
:101250000AD02068C068C00708D0A06D40F0200008
:10126000A0650120BDE8F081082600E0042600F01A
:101270005DFA074607E0681C05D000F057FAC01B6E
:10128000A8420FD875B1206800683042F3D0A06D35
:1012900040F40070A065206803F092FED0B1607E3B
:1012A00048B117E0A06D40F00400A065002084F86C
:1012B00054000320D6E72068006800070AD5A06D17
:1012C00020F48070A065A06DC00403D4A06D40F030
:1012D0000100A0652068C168082E05D0490401D42A
:1012E0000C2101600020BDE70821FAE710B5044693
:1012F000006803F061FE10B10221084610BD94F8A9
:10130000540001280CD0012084F854002046FFF737
:10131000ABFB01004FF0000004D084F85400ECE770
:10132000022010BDA26D40F601639A4342F4807220
:10133000A265A26DD20404D5E26D22F00602E26538
:1013400000E0E06523681C221A6084F854002068DD
:10135000C268920105D5A26D22F4005242F4805277
:10136000A2658268024B1A40121D8260C5E7000028
:10137000C0FFFF7F10B5044690F85400012808D044
:10138000012084F8540003212046FFF7CBFA10B166
:101390000BE0022010BD2046FFF732FB28B9A16DFB
:1013A00021F4885141F00101A165002184F8541015
:1013B00010BD10B590F825100024022903D0042197
:1013C000C16301241AE001680A6822F00E020A6073
:1013D00001680A6822F001020A6090F84410036C68
:1013E00001F01C02012101FA02F25A6080F8251076
:1013F000002180F82410816B01B18847204610BD80
:1014000070B5044600F092F90546601C02D004480D
:101410004068044400F08AF9401BA042FAD370BD32
:10142000600200202DE9F84F00230126DFF814C1E7
:101430000F2780E006FA03F414EA01027AD023F0C1
:1014400003056544AA46D5F808909D074FEA157E26
:1014500007FA0EF505EA090B0095B0F1904F05D09B
:10146000394DA84205D14FF0010816E04FF00008B1
:1014700013E0364DA84202D14FF002080DE0344D82
:10148000A84202D14FF0030807E0324DA84202D132
:101490004FF0040801E04FF0070808FA0EF8D845AD
:1014A00024D1DFF8B480D8F8009029EA0209C8F8FE
:1014B000009008F10408D8F8009029EA0209C8F859
:1014C000009008F10408D8F8009029EA0209C8F849
:1014D000009008F10408D8F800509543C8F800506F
:1014E000009DDAF80820AA43CAF80820D0F8008046
:1014F0004FEA4309032202FA09F248EA0208C0F857
:101500000080DD0800EB8505AA46D5F820804FEA6B
:1015100043794FEAD96907FA09F528EA0508CAF8B4
:1015200020808568954385604568A5434560C4680B
:101530009443C4605B1C31FA03F27FF47BAFBDE8D7
:10154000F88F000000000140000400480008004837
:10155000000C00480010004800040140044A1F210C
:10156000916104490A68024201D00860F6E77047B9
:101570000070004014040140044910B50A6802429A
:1015800002D00860FFF7EAFF10BD0000140401401C
:101590002DE9F84FDFF864B100234FF0010C4FF054
:1015A000030A4FF00F090BF1040EA0E00CFA03F64A
:1015B000324072D04C68022C01D0122C0ED1DC08C3
:1015C00000EB8408D8F820405D07EF0E09FA07F514
:1015D000AC430D69BD402543C8F8205007685D0045
:1015E00091F804800AFA05F408F00308A74308FA02
:1015F00005F848EA0708C0F800804F68012F05D0B9
:10160000022F03D0112F01D0122F11D18768D1F8EA
:101610000C80A74308FA05F848EA0708C0F80880D4
:101620004768B7430E79C6F300169E403E434660B6
:10163000C668A6438C68AC403443C4604C68E40080
:1016400054D52F4C256E45F001052566246E23F0F8
:10165000030504F0010400942A4C2E19B4689D0778
:101660002F0F09FA07F5AC43B0F1904F04D0264D87
:10167000A84203D1012512E0002510E0234DA84225
:1016800001D102250BE0224DA84201D1032506E03D
:10169000204DA84202D1042501E027E00725BD40E6
:1016A0002543B560DBF800405D464E689443F60381
:1016B00000D514432C60DEF8004075464E68944314
:1016C000B60300D514432C600C4D08352C684E68C9
:1016D0009443F60200D514432C60084D0C352C6859
:1016E0004E689443B60200D514432C605B1C0A6814
:1016F00032FA03F47FF45AAFBDE8F88F00040140DA
:1017000000100240000001400004004800080048AA
:10171000000C0048001000480069084000D001207B
:1017200070470AB1816170478162704701488068E3
:10173000704700006002002090F84120202A24D148
:1017400090F84020012A20D0012280F84020242255
:1017500080F841200268136823F0010313600268D7
:10176000136823F480531360026813680B431360FB
:1017700001680A6842F001020A60202180F84110E5
:10178000002180F84010084670470220704790F80A
:101790004120202A22D190F84020012A1ED0012287
:1017A00080F84020242280F841200268136823F04A
:1017B000010313600268136823F4706343EA012194
:1017C000116001680A6842F001020A60202180F875
:1017D0004110002180F840100846704702207047F1
:1017E00010B5040013D0242084F84100206801685B
:1017F00021F001010160204600F07CFB00206064C4
:1018000084F8410044F8300FA074207410BD01200A
:1018100010BD000070B5040004D094F8410000250C
:1018200010B106E0012070BD84F84050204600F061
:101830008FFB242084F841002068016821F0010119
:1018400001606068216820F070600861206881682C
:1018500021F400418160E0680128A06807D040F4CD
:10186000044021688860E068022803D006E040F464
:101870000040F6E721684FF4006048602068416846
:10188000114A114341602068C16821F40041C160E0
:10189000D4E904010843A16940EA01202168C86035
:1018A000D4E907010843216808602068016841F015
:1018B000010101606564202084F84100256384F8FB
:1018C0004250002070BD0000008000022DE9FC475E
:1018D00000260446019690F841001F46924689462C
:1018E00020287ED120688069C043000479D594F80F
:1018F0004000012875D0012084F84000242084F89D
:10190000410066644FF02008E068012809D029F4FE
:10191000544040F4205021684860FFF707FF054617
:101920000DE0314949EA010030490840F3E7781CED
:1019300005D0FFF7FBFE401BB84219D8C7B121689C
:1019400088698969C0F34010C1F300110843EED0E3
:10195000206880693B46C043C0064FF000024FF04C
:1019600020012046009517D503F044FA68BB09E032
:1019700084F8418054F8440F40F0200044F80409F2
:10198000267022E02168C1F81C8084F8418084F828
:1019900040600020BDE8FC8703F02CFAA8B921685C
:1019A0001020C8612168C1F81C800198504512D1EF
:1019B0002068416841F4804141603B46002220217B
:1019C0002046009503F016FA10B10120E2E708E086
:1019D0002168C1F81C800198401C0190504593D3A8
:1019E000C6E70220D6E7000000200002FF23000225
:1019F0002DE9F84F044690F84100DDF828A01F4675
:101A000090468B4620287ED194F8400001287AD059
:101A1000012084F84000FFF789FE0646012200906D
:101A20001923D103204603F0E5F9E0BB222084F816
:101A30004100102084F8420000256564C4F8248029
:101A400067856563618D3148FF274FF080784FF0DF
:101A50000079FF2903D927853A46009039E0618D46
:101A6000218500903AE05946204603F0ADF913E095
:101A700003F0ECF9B8B92068406A616A0870606ADE
:101A8000401C6062208D401E80B22085618D491E01
:101A90006185618D01B168B1608D32460028514683
:101AA0002046E5D100E002E003F012FAD0B10120B7
:101AB000BDE8F88F5346002280212046009603F0AF
:101AC00099F90028F3D1608DFF2804D927853A467B
:101AD00000954346C7E7608D2085009594F828203F
:101AE0004B46C0E721682020C86121684A68084B3E
:101AF0001A404A6084F8410084F8425084F840500B
:101B00000020D5E7FFE70220D2E700000024008094
:101B100000E800FE2DE9F84F044690F84100DDF89A
:101B200028A01F4690468B4620287ED194F840007E
:101B300001287AD0012084F84000FFF7F7FD06461F
:101B4000012200901923D103204603F053F9E0BB92
:101B5000212084F84100102084F8420000256564AB
:101B6000C4F8248067856563618D3148FF274FF095
:101B700080784FF00079FF2903D927853A460090F5
:101B800039E0618D218500903AE05946204603F006
:101B90001BF913E003F0C2F9B8B9606A2168007854
:101BA0008862606A401C6062608D401E6085208D86
:101BB000401E80B22085618D01B168B1608D3246D2
:101BC000002851462046E5D100E002E003F080F90C
:101BD000D0B10120BDE8F88F534600228021204675
:101BE000009603F007F90028F3D1608DFF2804D98F
:101BF00027853A4600954346C7E7608D20850095C6
:101C000094F828204B46C0E721682020C86121684D
:101C10004A68084B1A404A6084F8410084F84250F0
:101C200084F840500020D5E7FFE70220D2E700000B
:101C30000020008000E800FE2DE9FF4F83B004463D
:101C4000DDE9108790F84100DDF848909A46934608
:101C5000202874D15FEA080014D09FB194F84000A6
:101C600001286CD0012084F84000FFF75FFD064694
:101C7000012200901923D103204603F0BBF800286D
:101C800071D103E04FF4007060646CE0222084F8AE
:101C90004100402084F8420000256564C4F8248097
:101CA00067856563CDE9009653465A4620460499F8
:101CB00003F026F810B184F8405054E0618D3548A7
:101CC000FF274FF080784FF0007AFF2904D927854D
:101CD0003A464346009005E0618D2185009094F8D6
:101CE000282053462046049903F06EF84B46002204
:101CF00004212046009603F07DF8A0BB2068406ACE
:101D0000616A0870606A401C6062208D401E81B26A
:101D10002185608D401E6085608DD8B1D1B94B465C
:101D2000002280212046009603F064F8D8B9608D27
:101D3000FF2805D927853A464346009506E026E068
:101D4000608D2085009594F82820534620460499FC
:101D500003F03AF8608D0028C8D132464946204643
:101D600003F0B6F818B1012007B0BDE8F08F216884
:101D70002020C86121684A68074B1A404A6084F8ED
:101D8000410084F8425084F840500020ECE70220E3
:101D9000EAE700000024008000E800FE2DE9FF4F84
:101DA00083B00446DDE9108790F84100DDF84890E3
:101DB0009A469346202871D15FEA080014D09FB15B
:101DC00094F84000012869D0012084F84000FFF712
:101DD000ADFC0646012200901923D103204603F0F2
:101DE00009F800286ED103E04FF40070606469E0E8
:101DF000212084F84100402084F8420000256564D9
:101E0000C4F8248067856563CDE9009653465A4639
:101E10002046049902F0A6FF10B184F8405051E02A
:101E2000608DFF274FF080784FF0007AFF2804D9AB
:101E300027853A464346009505E0608D208500954C
:101E400094F8282053462046049902F0BDFF3246FC
:101E50004946204603F062F8A0BB606A216800781A
:101E60008862606A401C6062608D401E6085208DC3
:101E7000401E80B22085618DD9B1D0B94B46002279
:101E800080212046009602F0B5FFD8B9608DFF286A
:101E900005D927853A464346009506E026E0608D41
:101EA0002085009594F8282053462046049902F096
:101EB0008BFF608D0028CAD132464946204603F088
:101EC00007F818B1012007B0BDE8F08F2068202185
:101ED000C16120684268064B1A40426084F8411094
:101EE00084F8425084F840500020ECE70220EAE7F2
:101EF00000E800FE10B5124A0168124891420CD168
:101F0000816D21F40011816541154FF09044204608
:101F1000FFF788FA4FF480610CE00B4A91420ED132
:101F2000816D21F400018165084C01212046FFF7F5
:101F300079FA02212046BDE81040FFF773BA10BDC0
:101F40000054004000100240005C004000080048BF
:101F500070B586B0044614216846FEF781F9204E1C
:101F60002568204C1221012203200423B5421AD1F6
:101F7000E56C45F00105E564E56C05F001050595A6
:101F800045020095CDE90112CDE9030369464FF002
:101F90009040FFF7FDFAA06D40F40010A065A06D21
:101FA00000F4001019E0104EB54217D1E56C45F071
:101FB0000405E564E56C8DE8070003AE05F0040553
:101FC00086E8290069460948FFF7E2FAA06D40F467
:101FD0000000A065A06D00F40000059006B070BD83
:101FE0000054004000100240005C0040000800481F
:101FF0000248816842681144816070476002002095
:1020000010B50024032000F081F8002000F008F84B
:1020100008B1012401E000F025F8204610BD0000C1
:1020200070B50E4E05460024706898B14FF47A7171
:10203000B1FBF0F00A490968B1FBF0F002F071F968
:1020400040B9102D06D200222946501E00F03EF85D
:10205000356000E00124204670BD000060020020D1
:102060006C020020094808B5016E41F001010166CB
:10207000016E01F001010091816D41F08051816597
:10208000806D00F08050009008BD000000100240FC
:1020900000280DDB00F01F02012191404009800063
:1020A00000F1E020C0F88011BFF34F8FBFF36F8FB6
:1020B0007047002809DB00F01F0201219140400910
:1020C000800000F1E020C0F800117047F0B40E4B22
:1020D0001B680C46C3F30223C3F10705042D00D986
:1020E0000425191D072901D2002300E0DB1E01266B
:1020F00006FA05F1491E214099409E40761E164081
:102100003143F0BC08F014B80CED00E0064900F0D3
:10211000070208684FF6FF03184040EA0220034A0E
:1021200010430860704700000CED00E00000FA0565
:10213000BFF34F8F05480168054A01F4E061114380
:102140000160BFF34F8F00BFFDE700000CED00E022
:102150000400FA0501220168C0F86822002280F814
:10216000602231F8540F40F001000880088840F0E8
:10217000020008801046704770B50F4D044669B1E3
:1021800001290AD1D4F8700207F095F9A069002856
:1021900003D0286840F00600286070BDA06928B10F
:1021A00005F050FD286820F006002860D4F8700281
:1021B000BDE8704007F0F6B810ED00E010B50C0671
:1021C00005D501F0070100EB4110283003E000EBDA
:1021D000411000F5947099B232B10122027301816D
:1021E000190C4181002010BD00220273C180F9E763
:1021F00000EB4112D0F87002D26B06F08DBF00EBFD
:102200004112D0F87002D2F83C2106F0DABF10B5C6
:1022100004000CD0032084F82902204600F010FBB3
:10222000204600F059FA002084F8290210BD012050
:1022300010BD10B5044690F82802012809D00120ED
:1022400084F82802206807F0D4FD002084F82802D2
:1022500010BD022010BD10B5044690F828020128D8
:1022600009D0012084F82802206807F0C9FD002069
:1022700084F8280210BD022010BD70B504460B067C
:1022800001F0070004EB40114FF001024FF0000590
:1022900003D581F82920283103E081F8295101F57F
:1022A0009471087094F82802012808D084F8282234
:1022B000206807F017FD84F82852002070BD022026
:1022C00070BD70B5044601F00F006268904201D9FC
:1022D000012070BD0B0601F0070004EB40114FF028
:1022E00001024FF0000503D581F82920283103E0D1
:1022F00081F8295101F594718D70087094F82802C5
:10230000012808D084F82822206807F099FD84F875
:102310002852002070BD022070BD10B5044690F810
:10232000280201280AD0012084F82802080607D5CF
:1023300001F00701206807F0A3FE04E0022010BDB1
:10234000206807F09BFE002084F8280210BD01F0F1
:10235000070100EB4110D0F8440170472DE9F0412E
:1023600004460F0601F0070004EB40114FF0010690
:102370004FF0000503D581F82960283103E081F88A
:10238000295101F5947108700A61CB704A7802B145
:10239000C881022B00D10D7194F82802012809D0C0
:1023A00084F82862206807F06BFB284684F82852DE
:1023B000BDE8F0810220FBE770B50C4601F007058F
:1023C00000EB4511C1E94F230022C1F8442181F8F7
:1023D000292181F8285101F594716207006807F0FE
:1023E00084FD002070BD70B504460D4601F0070065
:1023F0006168884201D9012070BD29064FF00006AE
:102400004FF0010205D504EB401181F82920283155
:1024100005E004EB451181F8296101F594718A709A
:10242000087094F82802012807D084F82822206830
:1024300007F042FD680702D006E0022070BD04F5F7
:102440000C71206807F0FAFC84F82862002070BD47
:1024500070B50C4601F0070500EB4511C1E90F23EB
:1024600000224A64012281F8292001F8285F6207CE
:10247000006807F03AFD002070BD10B50446006802
:1024800007F006FE000402D5204603F090FE206807
:1024900007F0FEFD40050CD5206830F8441F21F4FC
:1024A00080610180204600F06BF90021204600F099
:1024B00097F9206807F0ECFD400405D5206830F856
:1024C000441F21F480410180206807F0E1FD800471
:1024D00005D5206830F8441F21F4005101802068A0
:1024E00007F0D6FDC0041FD5206830F8401F21F04A
:1024F00004010180206830F8401F21F008010180AC
:1025000094F86002012806D1002084F86002014698
:102510002046FFF731FE204600F046F9206830F8EB
:10252000441F21F480510180206807F0B1FD0005AF
:102530001AD5206830F8401F41F00801018020685A
:1025400030F8441F21F400610180206830F8401FFA
:1025500041F004010180206807F09AFDC043C004E7
:1025600002D5204600F08AF9206807F091FD0006A8
:102570000BD5206830F8441F21F08001018094F8C9
:102580006002E0B1204600F079F9206807F080FD94
:10259000800508D5206830F8441F21F400710180BF
:1025A000204600F019F9206807F072FDC00505D536
:1025B000206830F8441F21F48071018010BD20682C
:1025C00030F8401F41F004010180206830F8401FBE
:1025D00041F008010180012084F860022068B0F811
:1025E00054003C2101EA9000C4F864020121204615
:1025F000FFF7C2FDC9E700002DE9F04186B00400F5
:1026000004D094F82902002520B108E0012006B08A
:10261000BDE8F08184F82852204600F077F80320C6
:1026200084F82902206807F001FC04F1100114224B
:1026300088466846FDF7FBFD94E80F0007F050FB65
:102640000227B0BB0021206807F039FD00200126D9
:102650000DE000BF04EB401181F8296001F8280F5C
:10266000C881CD700D614D61401CC0B28D61616843
:102670008142EFD800200FE004EB401181F829518E
:1026800081F8280181F82B51C1F83851C1F83C512B
:10269000401CC0B2C1F8405161688142ECD814229C
:1026A00041466846FDF7C3FD94E80F0007F0AFFB15
:1026B00010B184F82972A9E784F8245084F82962BB
:1026C000E069012802D12046FFF744FD206807F0A9
:1026D00097FB00209BE7000010B50068094988427D
:1026E0000FD10948816D21F0806181654FF4C0519F
:1026F0004FF09040FEF796FEBDE810404320FFF7F4
:10270000C7BC10BD006800400010024010B586B084
:10271000044614216846FDF7A3FD17492068884246
:1027200028D1164CE06C40F00100E064E06C694692
:1027300000F0010005904FF4C0500090022001907D
:1027400000200290032003900A2004904FF0904054
:10275000FEF71EFFA06D40F08060A065A06D002216
:1027600000F08060059011464320FFF7AFFC432046
:10277000FFF79FFC06B010BD00680040001002404B
:1027800070B5044680680125022801D0FEF710FAD2
:102790002946D4F8700206F01BFED4F87002BDE89A
:1027A000704006F0D6BD000010B50446806930B117
:1027B0000748016821F00601016005F043FA054968
:1027C0000A200860D4F87002BDE8104006F0EABDA7
:1027D00010ED00E068000020D0F8700206F0ECBDBB
:1027E00010B5044690F8280201280BD0012084F887
:1027F000280284F82410206807F063FC002084F885
:10280000280210BD022010BDD0F8702200F50C7116
:10281000104606F0F0BD10B5044690F828020128D5
:102820000CD0012084F82802206807F0E2FA206822
:1028300007F01CFC002084F8280210BD022010BD07
:1028400070B5044690F8280201280ED0012084F8C3
:102850002802206807F0EAFA206807F038FC002513
:1028600028B184F82852012070BD022070BD206874
:1028700007F0C6FA84F82852002070BD10B504464F
:10288000D0F8700206F017FEA06920B10448016874
:1028900041F00601016003490020086010BD0000FE
:1028A00010ED00E0680000201649B0F5007F0868D0
:1028B000C0F3412009D0022805D0086820F4C06088
:1028C00040F480600860002070470128FBD0086851
:1028D00020F4C06040F4007008600B4832220068A9
:1028E00050430A4AB0FBF2F0401C00E0401E4A6927
:1028F000520501D50028F9D148694005E3D50320E8
:1029000070470000007000406C02002040420F0041
:102910000248416841F480614160704700700040A6
:102920000A490A6822F007020A6009490A6842F067
:1029300004020A60012807D040BF20BF20BF0868FA
:1029400020F004000860704730BFF8E700700040D6
:1029500010ED00E00B490A6822F00702521C0A60E1
:1029600009490A6842F004020A60012807D040BF02
:1029700020BF20BF086820F004000860704730BF07
:10298000F8E700000070004010ED00E00248006829
:1029900000F4C06070470000007000400248016809
:1029A00041F480710160704700700040B0F5804FC5
:1029B000084601D0FFF7B4BFFFF7CCBF2DE9F84FB1
:1029C000044600270088C04D3E46000515D5E06C42
:1029D00060B1B0F5000F04D0B0F5400F2BD0012747
:1029E0000AE0E86840F48030E86024E00021201D1F
:1029F00003F02CFD07001ED03E46206880033AD528
:102A0000A86D4FF00008C00009D4A86D40F08050B8
:102A1000A865A86D4FF0010800F080500090DFF825
:102A2000ACA2DAF8001041F48071CAF80010FEF789
:102A30007DFE814610E0D5F88800E16C20F440006E
:102A40000843C5F88800D8E7FEF770FEA0EB090040
:102A5000022801D9032705E0DAF80000C005F3D504
:102A6000002F7CD04FEA0706B8F1000F03D0A86D05
:102A700020F08050A8652078C00707D0D5F88800DE
:102A8000216A20F003000843C5F8880020788007F9
:102A900007D5D5F88800616A20F00C000843C5F816
:102AA00088002078400707D5D5F88800A16A20F073
:102AB00030000843C5F888002078000707D5D5F80E
:102AC0008800E16A20F0C0000843C5F8880020783B
:102AD000800607D5D5F88800216B20F440600843B4
:102AE000C5F888002088800507D5D5F88800616C76
:102AF00020F440200843C5F888002088400507D509
:102B0000D5F88800A16C20F440100843C5F888006F
:102B10002078400607D5D5F88800616B20F4405036
:102B20000843C5F888002078000607D5D5F8880046
:102B3000A16B20F440400843C5F888002088C005F8
:102B400007D5D5F88800E16B20F440300843C5F87C
:102B500088002068C00209D5D5F89C0000E01CE080
:102B6000216C20F003000843C5F89C0020884FF03A
:102B7000006780044FF080684ED5D5F88800216D3D
:102B800020F040600843C5F88800206DB8423BD172
:102B9000E86840F48010E8603EE0D5F8900010F45A
:102BA000407014D0616E814211D0D5F89000D5F8F4
:102BB000901020F4407041F48031C5F89010D5F8A1
:102BC000901021F48031C5F89010C5F89000C0072E
:102BD00011D0FEF7ABFD074640F2DC5907E000BF1D
:102BE000FEF7A4FDC11B494501D903263CE7D5F8F2
:102BF00090008007F4D5D5F89000616E20F4407005
:102C00000843C5F890002FE7404505D10121201D5C
:102C100003F01CFC00B106462068000317D5D5F868
:102C20008800616D20F040600843C5F88800606D41
:102C3000B84204D1E86840F48010E86007E04045FD
:102C400005D10121201D03F001FC00B106462068DA
:102C5000400317D5D5F88800A16D20F040600843E7
:102C6000C5F88800A06DB84204D1E86840F480102F
:102C7000E86007E0404505D10121201D03F0E6FB97
:102C800000B106462088400411D5D5F88800E16DD2
:102C900020F040500843C5F88800E06DB0F1805F37
:102CA00005D10221201D03F0D1FB00B106462068AA
:102CB000C00306D555F8880F216E20F00040084368
:102CC00028603046BDE8F88F0010024000700040D8
:102CD0002DE9F0470F46050058D0404E306800F00F
:102CE0000700B84209D2306820F00700384330604E
:102CF000306800F00700B84248D12878384CC00747
:102D00002CD06868032811D0022812D0216898B10D
:102D1000490500293ADAA16821F003010143A160C5
:102D2000FEF704FD804641F2883910E021688901F0
:102D3000EFE721688903ECE78907EAE7FEF7F6FC8D
:102D4000A0EB0801494502D90320BDE8F087A0683F
:102D5000696800F00C00B0EB810FEFD12878800794
:102D600005D5A068A96820F0F0000843A06030688D
:102D700000F00700B8420BD9306820F00700384354
:102D80003060306800F00700B84201D00120DCE775
:102D90002878400705D5A068E96820F4E06008437A
:102DA000A0602878000706D5A068296920F4605043
:102DB00040EAC100A06000F03FF8A168094AC1F3F1
:102DC0000311515C01F01F01C84007490860074822
:102DD0000068BDE8F047FFF723B90000002002407B
:102DE00000100240384101086C02002060020020FF
:102DF0000548064900688968054AC1F30221515C0B
:102E000001F01F01C84070476C0200200010024012
:102E1000784101080548064900688968054AC1F3F8
:102E2000C221515C01F01F01C84070476C020020B4
:102E3000001002407841010830B5214900221046B7
:102E40008B6813F00C04CB6803F003051D4B09D00D
:102E50000C2C05D0042C01D0082C00D1184630BD14
:102E6000012D10D10A68120704D4D1F89420C2F3BE
:102E7000032202E00A68C2F30312134D55F8222020
:102E80004CB10C2CEBD1C86800F00300022804D030
:102E9000032803D101E0104630BD1A46C868CB684C
:102EA000C0F30210C3F306235343401CB3FBF0F2FC
:102EB000C868C0F34160401C4000B2FBF0F030BD78
:102EC000001002400024F400484101082DE9F84FA9
:102ED00004006ED0FD4DA86800F00C06E86800F014
:102EE00003072078C00663D576B10C2E01D1012FDF
:102EF0000AD0A0690028286878D040F00100286036
:102F0000FEF714FC80465BE02868800702D5A069C4
:102F10000028DED0216A2868000703D5286800F061
:102F2000F00004E0D5F89400F02202EA101081428B
:102F300016D9084603F020FB00283AD1286840F053
:102F4000080028602868216A20F0F0000843286003
:102F50006868E16920F47F4040EA0120686015E07C
:102F6000286840F0080028602868216A20F0F000F6
:102F7000084328606868E16920F47F4040EA012046
:102F80006860206A03F0F8FA0028D6D1FFF754FFF2
:102F9000A968CF4AC1F30311515C01F01F01C84079
:102FA000CC490860CC480068FFF73AF800287DD18A
:102FB0002DE0CBE0FEF7BAFBA0EB0800022876D8A4
:102FC00028688007F6D5286840F00800286028683F
:102FD000216A20F0F000084328606868E16920F465
:102FE0007F4040EA0120686011E0FFE720F0010027
:102FF0002860FEF79BFB804606E000BFFEF796FBCD
:10300000A0EB08000228DAD828688007F6D42078D8
:1030100040F2DC58C00740D0082E18D00C2E01D149
:10302000032F14D06068B0F5803F17D0B0F5A02F03
:10303000286817D020F480302860286820F4802089
:1030400028606068E0B1FEF771FB814614E02868F3
:10305000800322D56068002878D01EE0286840F4FC
:103060008030EDE740F480202860F7E7FEF75EFB54
:10307000A0EB09014145A2D828688003F6D50CE0F1
:10308000FEF754FB814605E0FEF750FBA0EB09017B
:10309000414594D828688003F6D4207880073BD532
:1030A000042E11D00C2E04D1022F01E064E1B8E00F
:1030B0000AD0E068002828681ED040F4807028609C
:1030C000FEF734FB07460CE0286840050CD5E068A5
:1030D0000028C1D008E000BFFEF728FBC01B022873
:1030E00091D828684005F7D56868217C20F0FE401B
:1030F00040EA016068600FE020F480702860FEF70D
:1031000015FB074605E000BFFEF710FBC01B0228B9
:10311000B1D828684005F7D42078000729D5606920
:103120000028D5F8940012D040F00100C5F89400B2
:10313000FEF7FCFA074604E0FEF7F8FAC01B022887
:103140006FD8D5F894008007F6D512E04AE120F058
:103150000100C5F89400FEF7E9FA074605E000BF54
:10316000FEF7E4FAC01B02285BD8D5F8940080076C
:10317000F6D42078400764D5A86D0027C00008D495
:10318000A86D40F08050A865A86D012700F0805020
:10319000009052480168C90512D40168824641F482
:1031A00080710160FEF7C2FA814605E0FEF7BEFAC3
:1031B000A0EB0900022834D8DAF80000C005F5D5E4
:1031C000A068012814D00528D5F8900015D020F06B
:1031D0000100C5F89000D5F8900020F0040000BF71
:1031E000C5F89000A068C0B1FEF7A0FA81460FE0D4
:1031F000D5F8900040F00100F2E740F00400C5F877
:103200009000F5E7FEF792FAA0EB0901414508D8D6
:10321000D5F890008007F5D50EE0FEF787FA8146D5
:1032200006E07CE0FEF782FAA0EB0901414576D882
:10323000D5F890008007F5D41FB1A86D20F080501C
:10324000A8652078800628D5606A0028D5F89800FF
:1032500012D040F00100C5F89800FEF767FA074663
:1032600005E000BFFEF762FAC01B022857D8D5F868
:1032700098008007F6D510E020F00100C5F898000E
:10328000FEF754FA074604E0FEF750FAC01B022886
:1032900071D8D5F898008007F6D4A06AF0B30C2E48
:1032A00071D00228286820F0807028601AD0286821
:1032B000000103D4E86820F00300E860E8680849EA
:1032C0000840E860FEF732FA044657E0001002407A
:1032D000384101086C0200206002002000700040AC
:1032E000FFFFEEFEFEF722FA064604E0FEF71EFAA6
:1032F000801B02283FD828688001F7D4F4E90B012D
:103300006FF00F0202EB01110843218A49085204B1
:1033100002EB4151A26841EA022101E064E02AE0A7
:103320000843217D4FF07E42490802EB416108438A
:10333000217B40EAC160E9682C4A11400843E860FB
:10334000286840F080702860E86840F08070E8608D
:10335000FEF7ECF9044604E0FEF7E8F9001B02284A
:1033600009D828688001F7D53EE000BFFEF7DEF9F6
:10337000001B022802D90320BDE8F88F28688001CD
:10338000F4D431E0FFE70128F6D0E868E26A00F003
:103390000301914226D1216B00F07002090110391E
:1033A00091421FD1626B00F4FE41B1EB022F19D1A3
:1033B00094F8382000F07841B1EBC26F12D1A18FA0
:1033C00000F4C00249084905A1F50011914209D154
:1033D00094F8401000F0C06049084906A1F100715E
:1033E000814201D00120C7E70020C5E78C809D0104
:1033F0000068503050F82100704708B50068503020
:1034000000EB81000090026008BD000010B500686C
:103410000B4641680D480140080CD870C1F30424E4
:103420005C7001F03F049C70C1F34231197052B9D5
:1034300003F0E0F8D870587803F0DCF8587098780A
:1034400003F0D8F89870002010BD00003FFFFF0087
:1034500010B50B460168896A596001680969C1F3B2
:103460000E019960006801680D480140C1F30540F4
:103470001870C1F306245C7001F07F049C70890D04
:10348000D97052B903F0B6F81870587803F0B2F852
:103490005870987803F0AEF89870002010BD0000C6
:1034A0007F7F7F0010B504004FF0010044D094F8F6
:1034B000210028B9002084F82000204600F040F8C0
:1034C000022084F821002168CA2048622168532024
:1034D0004862204603F0A4F800282DD120688168B6
:1034E000164A11408160216888686268A3691043A8
:1034F00022691A43104388602168E06808612068E7
:103500000169228941EA02410161204603F0ACF8D9
:10351000002811D12168CA6C22F00302CA646269D2
:10352000E16911432268D36C1943D1642268FF21F9
:103530005162012184F8211010BD0000BFFF8FFFF0
:1035400000680549884205D1044850F8901F41F4AD
:103550000041016070470000002800400010024058
:103560002DE9F05F044690F820000B46012844D076
:10357000012084F82000022084F821002068002621
:1035800080684FEA4060BAB3002800DBDE709878AC
:103590001978DA7840EA01405978090241EA825103
:1035A000084393F8201040EA0165D8695F68054335
:1035B00058692168054398690743CA204862216811
:1035C00053204862586A4FF0FF08B0F5807F2068AA
:1035D0004FF0030B4FF47A7A81682BD021F40071FD
:1035E00081602068C16801F0800161F42071C160D0
:1035F000FEF79CF8814652E002E00220BDE8F09F11
:10360000002800DBDE70187802F0FDFF0504587812
:1036100002F0F9FF45EA0025987802F0F4FF05432F
:10362000D87845EA805593F8200002F0ECFF45EA8F
:103630000065BAE721F4807181602068C16801F0FB
:10364000800161F4C071C160FEF770F8814605E049
:10365000FEF76CF8A0EB0900504517D82068C06849
:10366000C007F5D02068C56120684764206881687C
:1036700041F4807181602068816841F480511FE0CD
:10368000FEF754F8A0EB0900504508D92168C1F8AD
:10369000248084F821B084F820600320AEE72068FD
:1036A000C0688007ECD520680562206887642068C0
:1036B000816841F4007181602068816841F40051A3
:1036C00081600A48016841F48021016007480830A0
:1036D000016841F4802101602168C1F82480012043
:1036E00084F8210084F82060002087E7000401406E
:1036F00070B5044690F820000B4601281BD0012627
:1037000084F82060022084F82100B2B19878D9783A
:1037100040EA014558781978000240EA41300543F3
:103720002168CA204862216853204862204602F07E
:1037300077FFD0B120E0022070BD5878C10603D5D4
:1037400000F0EF000A305870D87802F05CFF0504F2
:10375000587802F058FF45EA0025987802F053FFA8
:103760000543187845EA4035DAE7084805402068FF
:103770004560204602F078FF2268FF21516208B9B7
:1037800084F82160002184F8201070BD3FFFFF0005
:103790002DE9F041044690F8200090460D4601289E
:1037A00011D0012784F82070022084F821002168BC
:1037B000CA204862216853204862204602F030FF48
:1037C000002618B129E00220BDE8F0812068B8F198
:1037D000000F80684FEA406024D0002800DBEE70C4
:1037E000A8782978EA7840EA01406978090241EA34
:1037F00082510843184908402168086020688168A0
:1038000021F480218160D5E90301084321688A6899
:1038100010438860204602F027FF2268FF21516292
:10382000A0B115E0002800DBEE70287802F0EBFE76
:103830000304687802F0E7FE43EA0023A87802F068
:10384000E2FE0343E87843EA8050D3E784F821702E
:1038500084F82060B8E700007F7F7F0070B50446E1
:103860000068C16821F0A001C160FDF75FFF054657
:103870004FF47A7607E000BFFDF758FF401BB042D7
:1038800001D9032070BD2068C0688006F4D50020EF
:1038900070BD10B504000DD0032084F834002068FA
:1038A00003F03EFE204600F043F90020A06384F8B8
:1038B000340010BD012010BDF0B5426E920F0A70A9
:1038C000426EC2F383624A70426EC2F301628A7032
:1038D000426E120CCA70B0F86420120A0A7190F895
:1038E00064204A71826E120DCA80826EC2F3034256
:1038F0000A72B0F86820C2F3C0324A72B0F8682089
:10390000C2F380328A72B0F86820C2F34032CA72C1
:10391000B0F86820C2F300320A7300264E73426C7E
:103920004FF40075012462B1012A3AD00268474978
:103930009163816B41F08051816380F834400120B4
:10394000F0BDB0F86820C36E9205120D42EA937282
:103950000A61C26EC2F3C2620A75C26EC2F302622B
:103960004A75C26EC2F342528A75C26EC2F3824277
:10397000CA75C26EC2F3C2320A760A69521C426527
:103980000B7E03F007039B1C9A4042650B7A03F001
:103990000F0704FA07F383655B0A5A43C0E917254A
:1039A0000EE090F86820C36E9206920A42EA134233
:1039B0000A610A69521C92024265C0E91652056604
:1039C00030F86C2FC2F3803201F8192F0288C2F34D
:1039D000C6124A70027802F07F028A704268D20FE3
:1039E000CA704268C2F341720A714268C2F38262CD
:1039F0004A714268C2F383528A714268C2F34052EC
:103A0000CA710E724268C2F300424A728288C2F3DF
:103A1000C0328A728288C2F38032CA728288C2F34C
:103A200040320A738288C2F300324A738288C2F33A
:103A300081228A738288C2F30122CA730079C0F39B
:103A4000460008744C740020F0BD0000FF054000E3
:103A5000426C0A60826C4A60C26C8A60026DCA6005
:103A6000426D0A61826D4A61C26D8A61006EC861F1
:103A70000020704770B50446B0F8500000250104DE
:103A8000206803F088FB18B1A16B0143A16304E037
:103A90000021206803F030FD0546C5F3432070BDCA
:103AA00070B504000ED094F83400002518B92577BD
:103AB000204600F05BF8032084F83400204600F034
:103AC0000AF808B1012070BDA5632563012084F8C0
:103AD0003400002070BD3EB50021044676200091E0
:103AE000CDE901100B460A46206803F008FD40B9F5
:103AF0002068416821F480714160206803F014FD62
:103B000008B101203EBD2068416841F480714160E8
:103B1000204603F0B1FD012520B9204603F034FD15
:103B20000028EFD084F83450A16B0143A163E8E78B
:103B300010B50068094988420FD10948016E21F487
:103B4000806101664FF488510648FDF76BFCBDE8C3
:103B5000104004210448FDF765BC10BD0028014059
:103B60000010024000080048000C0048F0B587B083
:103B7000044614216846FCF773FB19492068884203
:103B80002BD11848016E41F480610166016E01F489
:103B900080610591C16C41F00401C164C16C01F008
:103BA00004010591C16C41F00801C164C06C02249C
:103BB00000F0080005904FF48850002503260C27DC
:103BC0008DE8F10069460848FDF7E2FC04208DE825
:103BD000F10069460548FDF7DBFC07B0F0BD0000C9
:103BE000002801400010024000080048000C004876
:103BF0002DE9F04F87B09B4616460D460446FDF76B
:103C000095FD00903DB194F83400012807D0A06BD9
:103C100040F000500DE0A06B40F0006009E000278C
:103C2000A763E16D06EB0B00884204D9A06B40F05E
:103C30000070A06395E0032084F834002068C76218
:103C4000606C012800D076024FF40071206803F008
:103C5000AFF9DFF890A1012140B12368C3F838A083
:103C6000A26B0243A26384F834107AE04FF0FF3075
:103C700001904FEA4B200290902003900220CDE962
:103C8000040706918846B94601A9206803F000FBA5
:103C9000BBF1010F06D9022020633146206803F0F2
:103CA00003FA05E0C4F830803146206803F015FAC5
:103CB00030B12268C2F838A0A16B0143A1634CE087
:103CC000029E1FE0406B000413D596B100272068C8
:103CD00003F032FC05F8010B010A05F8011B010C89
:103CE00005F8021B000E361F7F1C05F8010C082F7B
:103CF000EDD3FDF71BFD01460098091A109881428B
:103D00001CD2D8B12068416B11F4957FDAD0416B99
:103D1000C90509D5BBF1010F06D9616C032903D090
:103D200003F06AFA0028C4D12068416B09071AD54C
:103D3000C0F838A0A06B40F0080051E02168C1F83D
:103D400038A0A06B40F00040A06384F83480C4F831
:103D50003090032007B0BDE8F08F84F83480C4F8B9
:103D600030900120F6E7416B890705D5C0F838A0EF
:103D7000A06B40F0020033E0416B89061CD5C0F80F
:103D800038A0A06B40F020002AE000BF03F0D4FB75
:103D900005F8010B010A05F8011B010C05F8021BCF
:103DA000000E05F8010C361FFDF7C0FC0099411A02
:103DB000109881420ED268B12068416B890201D50A
:103DC000002EE3D1216840F23A50886384F83480B1
:103DD0000020BFE72168C1F838A0A06B40F0004088
:103DE000A063BAE7FF0540002DE9FF4F8DB01646EE
:103DF0000D460446FDF79AFC0B903DB194F8340053
:103E0000012807D0A06B40F000500DE0A06B40F0FF
:103E1000006009E00027A7631098E16D30448842F4
:103E200004D9A06B40F00070A0638BE0032084F8FD
:103E300034002068C762606C012800D076024FF41D
:103E40000071206803F0B4F8DFF864B1012140B1DB
:103E50002368C3F838B0A26B0243A26384F834101D
:103E600070E04FF0FF3003901098894640020490B4
:103E70009020CDE90507CDE90771BA4603A920686E
:103E800003F006FA1098012806D920202063314655
:103E9000206803F0CBF905E010202063314620684C
:103EA00003F0DDF95FEA000806D02168C1F838B0F8
:103EB000A06B40EA080071E0049E27E0406B4004DC
:103EC0001CD5DEB15FF0000715F8010B009015F866
:103ED000011B361F40EA0120009015F8021B40EA42
:103EE0000140009015F8011C40EA0160009069460D
:103EF000206803F034FB7F1C082FE5D3FDF716FC88
:103F00000B99411A1A98814220D2F8B12068416B6E
:103F100011F48D7FD2D0416BC90524D510990129A8
:103F200021D9616C03291ED003F066F9D8B122684B
:103F3000C2F838B0A16B0143C4F8381084F834904B
:103F4000C4F830A0012011B0BDE8F08F2168C1F89D
:103F500038B0A06B40EA0800A06384F83490C4F83D
:103F600030A00320EFE72068416B090705D5C0F8B2
:103F700038B0A06B40F0080010E0416B890705D510
:103F8000C0F838B0A06B40F0020007E0416BC906F2
:103F900006D5C0F838B0A06B40F01000A063CDE7A4
:103FA00040F23A51816384F834900020CBE700005E
:103FB000FF05400010B5040011D0022084F85D0018
:103FC0002068016821F040010160204600F060F89F
:103FD0000020206684F85D0084F85C0010BD01209C
:103FE00010BD2DE9F041040005D00025A56294F82C
:103FF0005D0018B107E00120BDE8F08184F85C5055
:10400000204600F071F8022384F85D3020680168D2
:1040100021F040010160E0684FF4E066B04201D950
:10402000002101E04FF48051B0F5706F02D0B04232
:1040300000D0A562276B012227B9B04201D92363C2
:1040400000E02263D4E901031843D4E90436334382
:104050001843238B03F400731843E3691843236A5E
:104060001843A36A184323681860636B606AA669E3
:1040700018430427E36807EA164633431843084306
:1040800021684860256684F85D200020B4E70000C0
:1040900010B5104A01681048914207D1016E21F411
:1040A0008051016682214FF090400DE00B4A914211
:1040B0000ED1816D21F4804181650C210848FDF706
:1040C000B1F908484FF48061BDE81040FDF7AAB986
:1040D00010BD0000003001400010024000380040D8
:1040E0000008004800040048F0B587B004461421D9
:1040F0006846FCF7B5F8264A2168002525480224C1
:1041000003260527914216D1016E41F480510166C4
:10411000016E01F480510591C16C41F00101C1644F
:10412000C06C694600F00100059082208DE8F10026
:104130004FF0904027E0184A914226D1816D41F41A
:1041400080418165816D01F480410591C16C41F030
:104150000401C164C16C01F004010591C16C41F01E
:104160000201C164C06C694600F0020005900C2099
:104170008DE8F1000948FDF70BFA4FF480608DE8F7
:10418000F10069460648FDF703FA07B0F0BD0000EC
:104190000030014000100240003800400008004894
:1041A000000400482DE9F84F044690F85C00002711
:1041B0001D461646894601280DD04FF0010B84F8A4
:1041C0005CB0FDF7B3FA804694F85D00BA4601286A
:1041D00004D002279FE00220BDE8F88FB9F1000F5C
:1041E0006FD0002E6DD0032084F85D00C4F860A06D
:1041F000C4F83890A687E687C4F840A0A4F844A085
:10420000A4F846A0C4F850A0C4F84CA0A068B0F52B
:10421000004F04D12068016841F4804101602068AA
:104220000168490603D4016841F040010160E0687B
:10423000B0F5E06F606823D908B1012E1CD1A06BE6
:1042400021680088C86006E020688168890709D570
:10425000A16B0988C160A06B801CA063E08F401E29
:10426000E08709E0FDF762FAA0EB0800A84202D35C
:10427000681C01D046E0ADB3E08F0028E4D136E001
:1042800008B1012E30D1E08F0128A06B03D921683D
:104290000088C8600FE021680078087314E0E087A8
:1042A00022E020688168890714D5E18F0129A16B7C
:1042B00008D90988C160A06B801CA063E08F801EB4
:1042C000EDE727E009780173A06B401CA063E08F45
:1042D000401EE4E7FDF72AFAA0EB0800A84202D34B
:1042E000681C01D00EE06DB1E08F0028D9D14246A4
:1042F0002946204603F05BFB08B120202066A06819
:1043000010B105E0032706E02068C16880680090CE
:10431000206E00B1012784F85DB084F85CA03846B7
:104320005AE710B5401EB0F1807F01D3012010BDC7
:104330004FF0E02460610F21601705F0F9FE0020C6
:10434000A06107202061002010BD000070B590F82A
:104350003C20012A21D0012480F83C40022280F830
:104360003D2003685A689D680D4EB34203D122F484
:1043700070064A68324322F070060A688968324340
:1043800025F0800529435A600268916080F83D401D
:10439000002180F83C10084670BD022070BD00006E
:1043A000002C014010B5040003D094F83D0010B17A
:1043B00007E0012010BD002084F83C00204600F0FA
:1043C0000DF8022084F83D00211D206803F0C6FC92
:1043D000012084F83D00002010BD000008B50068F1
:1043E000B0F1804F08D10548816D41F00101816530
:1043F000806D00F00100009008BD00000010024038
:1044000070B5044690F83C00012817D0012584F8C7
:104410003C50022084F83D00226890682E4B1840E2
:1044200020F47F4090600868502830D00DDC2028B0
:104430004DD005DC98B310283BD148E0022070BD78
:10444000302844D0402834D139E0602828D0702862
:1044500006D0B0F5805F2CD0B0F5005F29D10AE01E
:10446000CB68D1E90121206803F0B4FC20688168A1
:1044700041F0770109E0CB68D1E90121206803F020
:10448000A9FC2068816841F48041816011E0CA681C
:104490004968206803F034FE5021206807E016E0E8
:1044A000CA684968206803F03CFE6021206803F078
:1044B0009BFC84F83D50002084F83C0070BDCA6825
:1044C0004968206803F01CFE40212068EFE722685D
:1044D00001461046EBE7000088FFFEFF10B586B0EE
:1044E000044614216846FBF7BBFE2068B0F1804FFC
:1044F00016D10C48C16C41F00101C164C06C694621
:1045000000F0010005902020009002200190002082
:1045100002900390012004904FF09040FDF738F88E
:1045200006B010BD0010024070B5044690F83C0083
:104530000D4601280ED0012684F83C60022084F844
:104540003D000C2A45D007DC5AB1042A1BD0082AAA
:1045500078D12CE0022070BD102A4ED0142A71D1DF
:104560005DE0206803F048FC2068816941F00801A3
:1045700081612068816921F004018161206881697D
:104580002A69114311E0206803F072FC20688169F8
:1045900041F4006181612068816921F48061816159
:1045A000206881692A6941EA022181614AE0206824
:1045B00003F09AFC2068C16941F00801C1612068DC
:1045C000C16921F00401C1612068C1692A691143F0
:1045D00011E0206803F0C2FC2068C16941F4006169
:1045E000C1612068C16921F48061C1612068C1692D
:1045F0002A6941EA0221C16124E0206803F0DEFC5F
:104600002068416D41F0080141652068416D21F04D
:10461000040141652068416D2A69114311E0206859
:1046200003F0FAFC2068416D41F4006141652068A7
:10463000416D21F4806141652068416D2A6941EA3C
:104640000221416584F83D60002084F83C0070BD83
:1046500010B5040003D094F83D0010B107E001202C
:1046600010BD002084F83C00204600F00CF8022029
:1046700084F83D00211D206803F070FB012084F8C0
:104680003D00002010BD704770B5044690F83C0016
:10469000012812D0012584F83C50022084F83D0006
:1046A000204603F0E7FC01004FF0000007D084F83B
:1046B0003D5084F83C00012070BD022070BD21688F
:1046C000CA6822F04002CA602168CA6822F48042A7
:1046D000CA6084F83D5084F83C00002070BD70B57D
:1046E000040003D094F83C0010B107E0012070BD35
:1046F000002084F83D00204600F044F8022084F8B1
:104700003C00206801250560D4E901010843228AA4
:10471000616941EA42410843A1690843E1690843EC
:10472000616A0843A16A084321680A681043086067
:10473000207B012804D12068016841F480310160A8
:10474000D4E90C010843A16B08432168C043086108
:10475000D4E90C010843216888622168A06B0862D3
:10476000206B03F0F0FC216808632068416821F0A9
:104770000301416021680320886084F83C500020D8
:1047800070BD0000F0B587B0044614216846FBF701
:1047900067FD2249206888423DD12148816C41F45F
:1047A00080318164816C01F480310591C16C41F0EC
:1047B0000201C164C16C01F002010591C16C41F0BC
:1047C0000401C164C06C002400F0040005904FF4A3
:1047D000805000901220CDE90104124F092569464E
:1047E0003846CDE90345FCF7D3FE4FF46040009016
:1047F0000226CDE9016469463846CDE90345FCF758
:10480000C7FEC0200090CDE9016469460648CDE9A5
:104810000345FCF7BDFE07B0F0BD000000400240BC
:10482000001002400004004800080048704770472C
:104830002DE9F04102680446D0691168936810F0D0
:104840000F0F4FF000055BD003F0010601F49077E5
:10485000374369D0C70707D0CF0505D501271762B1
:10486000E26F42F00102E267820708D5DA0706D05C
:10487000276802223A62E26F42F00402E2674207CE
:1048800008D5DA0706D0236804221A62E26F42F0E4
:104890000202E26702070AD501F02002324306D085
:1048A000236808221A62E26F42F00802E267E26FB0
:1048B000002A32D0800605D5880603D5216E09B1BD
:1048C00020468847E06F21688968490601D40007BF
:1048D00025D5204604F09CF820688168490619D542
:1048E000816821F040018160E06E98B120498163C8
:1048F000E06EFCF75EFD00280FD0E06E816B06E0F5
:10490000860611D58E060FD5216E1EE02046BDE825
:10491000F04108472046FFF78AFFBDE8F0812046B6
:10492000FFF785FFE567F8E7C60209D55B0207D503
:104930004FF4801010622046BDE8F041FFF776BFCB
:10494000030605D50B0603D5616E0029DED1E4E729
:104950004006E2D54806E0D51168204621F0400126
:10496000116020216167656600F074F9D5E70000E9
:10497000FD89000810B5040002D0606F10B107E097
:10498000012010BD002084F87000204600F026F8B9
:10499000242060672068016821F001010160204641
:1049A00004F0A0F80128ECD0606A10B1204603F0B2
:1049B00095FF2068416821F490414160206881683A
:1049C00021F02A0181602068016841F00101016045
:1049D0002046BDE8104003F0E5BF0000F0B587B009
:1049E000044614216846FBF73BFC2B4B226800254C
:1049F0002A49022403264FF090409A4227D18A6D1B
:104A000042F400228A658A6D02F400220592CA6C83
:104A100042F00102CA64CA6C02F001020592CA6C3B
:104A200042F00402CA64C96C082701F00401059130
:104A300001218DE8F2006946FCF7AAFDA0028DE88D
:104A4000F10069461648FCF7A3FD07B0F0BD154B11
:104A50009A42FAD18A6D42F400328A658A6D02F474
:104A600000320592CA6C42F00102CA64C96C01F0BE
:104A7000010105910C218DE872000721049169461E
:104A8000FCF786FD002211462620FDF71FFB26209D
:104A9000FDF70FFBD9E70000004C0040001002407A
:104AA000000800480044004030B5836F202B4BD1F4
:104AB000B1B1AAB190F87030012B45D0012380F834
:104AC00070304165A0F85820A0F85A2000210166F6
:104AD0001D038268FF23AA4207D1026912B125E0B3
:104AE000012030BD40F2FF1226E07F24E2B1B2F196
:104AF000805F1ED0A0F85C10C16722228267026826
:104B0000936843F0010393608268AA4201D102696D
:104B1000C2B10E4A026680F870100068016841F464
:104B200090710160002030BD026942B9A0F85C308C
:104B3000E2E702691AB13F22A0F85C20DCE7A0F8A6
:104B40005C40D9E7024AE5E7022030BD898A0008C7
:104B50002F8A000810B509F0FDFF0E48A0F1FC02F5
:104B6000017840290FD0232910D00B4B906D195498
:104B7000401C9065012207490848FFF795FFBDE8F2
:104B8000104009F0E1BF0020906500E001201061B5
:104B9000F0E700002401002000090020F8070020B1
:104BA0002DE9F8430446406F1F4616460D4620285F
:104BB0004ED1CDB1C6B194F87000012848D0012083
:104BC00084F870004FF00008C4F87C8021206067F2
:104BD000FCF7ACFDA4F850608146A4F85260A068D0
:104BE000B0F5805F03D004E00120BDE8F8832069C0
:104BF00010B12E46002510E000260EE08021204650
:104C000004F0ACF8B8B9C6B116F8010B21680885F4
:104C1000B4F85200401EA4F85200B4F852004B46BB
:104C20004FF0000200970028E8D14FF040012046E5
:104C300004F094F830B10320D7E735F8020BC0F345
:104C40000800E3E72020606784F870800020CCE74C
:104C50000220CAE77047FEE701688A69D2439207DB
:104C600001D400228A6200688169C943C90703D060
:104C7000816941F001018161704700002DE9F04137
:104C80000446006890460E468069C043C00633D48F
:104C90000025202720688069C043800615D5701C38
:104CA000F8D0FCF743FDA0EB0800B04201D8002E7D
:104CB000F0D154F8440F40F0200044F80409677024
:104CC000A57025700120BDE8F08121681020C86121
:104CD0002068C7612046FFF7BFFF54F8440B4168C6
:104CE000064A11404160206840F0040044F8200961
:104CF0006777A5772577E5E70020E4E700E800FE81
:104D00002DE9F84304461646DDE90897144898460D
:104D1000DAB200900023204600F056F83A464946A1
:104D2000204600F0FBF8B8B9F5B2B8F1010F08D091
:104D30002168300A88623A464946204600F0EEF87B
:104D400050B9206885624B460022402120460097DA
:104D500000F050F8002800D00120BDE8F8830000E2
:104D6000002000802DE9F843044616461548984671
:104D7000DDE90897DAB2C3020090204600F024F87B
:104D80003A464946204600F0C9F8B8B9F5B2B8F13C
:104D9000010F08D02168300A88623A464946204609
:104DA00000F0BCF850B9206885624B460022802193
:104DB0002046009700F01EF8002800D00120BDE832
:104DC000F883000000200080F0B50568059C686845
:104DD0004FF48066064FC1F3090106EA545641EAD2
:104DE00002413E431943B043214308436860F0BD8C
:104DF000FF63FF032DE9F0411D4617460E460446AA
:104E0000DDF8188008E0681C06D0FCF78FFCA0EBEA
:104E10000800A8420BD855B12068806936EA000026
:104E200012D00020B842EED00020BDE8F08154F846
:104E3000440F40F0200044F8040920206070002056
:104E4000A07020700120F0E70120EBE72DE9F04190
:104E5000002690460F460446202525E04246394666
:104E60002046FFF70BFF78BB20688069C0438006AF
:104E700013D420688169C943490701D4218DC1B980
:104E8000C56154F8440B4168104A1140416044F830
:104E900020696577A677267716E0FCF747FCA0EB3C
:104EA0000800B84208D83FB120688069C043400775
:104EB000D4D40020BDE8F08154F8440F40F0200025
:104EC00044F80409657026700120F3E700E800FE4D
:104ED00070B516460D4604460DE03246294620467A
:104EE000FFF7CCFE08B1012070BDFCF71FFC801B52
:104EF000A84207D835B120688069C0438006ECD449
:104F0000002070BD54F8440F40F0200044F804091C
:104F1000202060700020A0702070E4E770B5164675
:104F20000D4604460FE0324629462046FFF7A6FE0E
:104F300008B1012070BD681C05D0FCF7F7FB801B91
:104F4000A84207D835B120688069C0438007EAD4F9
:104F5000002070BD54F8440F40F0200044F80409CC
:104F6000202060700020A0702070E2E7F0B50023E0
:104F70000A24302537261F4611E000BFB4EB107F0E
:104F800002D905EB107C01E006EB107C01F813C0A0
:104F900001EB430C00015B1C8CF80170DBB2934207
:104FA000ECD3F0BD00EB8100006E00F0F8407047DC
:104FB0008068C0F3C00070478068C0F3800070470D
:104FC000C06810F4406F01D0002070470120704786
:104FD000042303EAD15310B518444369C1F30451C3
:104FE00007248C40A3438A401343436110BD00EB68
:104FF0008100016E21F000411143016670470000FD
:10500000FEB501215C480AF0EBF85C4C01266670A5
:105010005A49594809F04BFE20786A281CD0584854
:105020000DF0D8FE5648227856A19C3005F06CF859
:10503000534B3F229C33002151480EF061F852A39C
:10504000282200214E480EF05BF84D480EF078F80B
:105050003220FCF7D5F907E048494748491C0AF0D7
:10506000B2F860780128D3D0022143480AF0F9F958
:10507000002141480AF023FA01213F480AF0FAF8DA
:1050800001213D480AF0DFF801213B480AF0C4F84D
:105090000121394809F0EAFD8C2137480AF05DF911
:1050A000072135480AF0FDF8032133480AF027F9B3
:1050B000032131480AF03AF901212F480AF008F992
:1050C0002E492D48083109F05DFF2C4D08356878D0
:1050D00040F0080068702848A16809F0BCFF0F2064
:1050E0008DF80000694624480AF053F920208DF815
:1050F0000000694620480AF07AF901211E480AF0AA
:105100008DF99DF8040001A940F040008DF80400DD
:1051100019480AF055F92946174809F033FFAE70CF
:105120001548A16809F097FF0121134809F09AFE7C
:105130000F21114809F073FEF0210F4809F0DCFE41
:1051400006210D4809F0FBFEFF208DF8080002A99A
:10515000094809F0BAFE012000F01CF801210648B8
:105160000AF096F9112104480AF0C0F9A821024872
:1051700009F0C8FDFEBD0000080E00202800002038
:1051800078080020257800006C736D206572726FBE
:105190007200000010B5012811D009210F480AF053
:1051A00060F909210D4809F0F5FD00210B480AF0CE
:1051B00086F90621BDE81040084809F002BE062124
:1051C00006480AF04EF90021044809F0E3FD0021E9
:1051D00002480AF074F90021ECE70000080E0020F4
:1051E0000223024A4B21024809F0E6BF600000207A
:1051F000080E0020054810F8301F4078081A40B209
:10520000002801DA001D40B2C0B27047641F0220BE
:105210002DE9F041094C07460E462078154640F02E
:105220000100394600F010F9304040EA05023946E5
:105230002078BDE8F04100F019BA00000004002019
:105240002DE9F04F87B000F0DFF8044600F0E4F8F5
:105250004FF0000984427CD0B0EB040901D509F17C
:1052600020093E4F787819FB00F000EB400ADFF888
:10527000F0B06BE0D046BAF1200F09DD787820213C
:1052800000EB4000B1FBF0F200FB1210C0F120086F
:10529000AAEB080A57E000BF9BF83000401C00F062
:1052A00003008BF830007878022848D900EB4000E2
:1052B00003AACDE900206421029101230722AE2137
:1052C0002848FCF7B9FC00219DF80C0061F31F662B
:1052D00060F317469DF80D009BF8303060F30F2601
:1052E0009DF80E0061F31F6560F30706C6F3110217
:1052F0004BF823209DF80F2061F31F6462F31745DC
:105300009DF81020584662F30F259DF8112062F396
:1053100007059BF830200BEB820215619DF81210F7
:1053200061F317449DF8131061F30F249DF81410D6
:1053300061F3070490F830100BEB81000462787879
:10534000A0EB80008044B8F1000FA5DCBAF1000F9B
:1053500090DC07B01FFA89F0BDE8F08F0004002050
:10536000641F02203805002010B5094C00220421DA
:10537000207800F07BF900220521207800F076F9F2
:1053800020780022BDE81040062100F06FB900002F
:10539000000400201022EF210820FFF739BF012868
:1053A0000BD00A0102280BD003280DD004280ED1FF
:1053B000D2B28F211220FFF72BBF0A46F82101E05D
:1053C000D2B28F211120F6E70A46F821F2E77047A2
:1053D000034890F8311000EB8100006A704700002C
:1053E000641F0220034890F8311000EB810000692F
:1053F00070470000641F0220024890F8311050F8F6
:1054000021007047641F022002480621007800F046
:105410001BB800000004002002480421007800F0BE
:1054200013B800000004002000B5FFF7E3FE0028D9
:1054300006D0044911F8310F401C00F00300087039
:1054400000BD0000641F02201FB500208DF80C0075
:105450006423012203A88DE80D0013460A46AE21FD
:105460000348FCF7E9FB9DF80C0004B010BD0000F8
:105470003805002002469F210A20FFF7C9BE0246D8
:105480001F210820FFF7C4BE0246F8210920FFF7BC
:10549000BFBE0000024602480E21007800F0E6B8C8
:1054A00000040020024602480D21007800F0DEB81A
:1054B00000040020024602481021007800F0D6B80F
:1054C00000040020024602480C21007800F0CEB80B
:1054D000000400200246FC210A20FFF799BE024684
:1054E000E3210A20FFF794BE2DE9F0471C46DDE9D1
:1054F000088716460D46814600F09CF8012D0BD01A
:10550000022D0BD0042D05D0082D09D0102D09D067
:10551000202D09D0402008E0002006E0202004E0F3
:10552000602002E0802000E0A020FFF7A8FFFFF746
:1055300031FF032E0BD0022E0BD00220FFF7A4FF69
:105540003B48B7F5805F467005DA002011E0072080
:10555000F4E70320F2E7B7F5005F01DA202008E066
:105560004FF48040874201DA402002E08742ECD1CC
:105570006020FFF77FFF642C01DA002020E0C82CB8
:1055800001DA04201CE0B4F5C87F01DA082017E036
:10559000B4F5487F01DA0C2012E0B4F57A7F01DA25
:1055A00010200DE0B4F5C86F01DA142008E04FF4C4
:1055B0004860844201DA182002E08442DDD11C20D8
:1055C000FFF78DFFB8F1760F01DA00200EE0B8F199
:1055D000D70F01DA012009E0B8F5CD7F01DC022008
:1055E00004E0A8F580719B39EFD10320FFF772FF2B
:1055F0004846FFF767FF4846FFF754FF4846FFF766
:1056000049FF4846FFF756FF01210846FFF7C7FE4E
:10561000012E09D902210846FFF7C1FE022E03D947
:1056200003210846FFF7BBFEBDE8F047FFF79CBE2D
:105630000004002070B54022BF210920FFF7E8FDDB
:105640000CF0F8F90446084D08E009212878FFF726
:10565000FBFE400607D50120FBF7D2FE0CF0EAF96D
:10566000001B6428F1D370BD000400201FB5642323
:105670008DF80C20012203A88DE80D0013460A4680
:10568000AE210248FCF78AFB1FBD00003805002050
:10569000064890F8801190F88101081A40B200285D
:1056A00001DA203040B2C0B270470000B41D0220C1
:1056B0002DE9F04F87B000F09DF8044600F09EF809
:1056C000002684426DD0061B00D52036DFF8DC9022
:1056D00099F8000016FB00F000EB40084FF0000BBB
:1056E000DFF8CCA05AE000BF9AF8800103A9401C63
:1056F00000F01F008AF8800199F80000012300EBF8
:105700004000C7B2CDE90017642002900722BC21F7
:105710002848FCF791FA9DF80F009DF80C106BF3E8
:105720001F656BF31F6460F3174561F317449DF821
:1057300010009DF80D1060F30F2561F30F249DF804
:1057400011009DF80E1060F3070561F307049DF842
:1057500012009DF81310000440EA01239DF8140084
:1057600011210343184605F07BFE20B11248034384
:10577000D843401C43422A469AF88011C4F31205CC
:105780000AEB8104C2F31202C4F880504AF82120C7
:1057900003F50033A8EB0708C4F80031B8F1000F97
:1057A000A2DC07B0B0B2BDE8F08F00005E030020BD
:1057B000B41D0220EC0400200000FCFF034890F818
:1057C000811100EB8100D0F800017047B41D022068
:1057D000034890F8811100EB8100D0F880007047F9
:1057E000B41D0220024890F8811150F82100704742
:1057F000B41D02200621BC2000F014B80421BC20F6
:1058000000F010B800B5FFF743FF002807D00449A7
:1058100091F88101401C00F01F0081F8810100BD5A
:10582000B41D02201FB500208DF80C006423012256
:1058300003A88DE80D0013460A46BC210348FCF777
:10584000FBF99DF80C0004B010BD0000EC04002032
:1058500070B5F024254601220D21BC200EF034FB4A
:105860000A20FBF7CDFD7F220821BC200EF02CFB87
:1058700021220921BC200EF027FBA9220A21BC20ED
:105880000EF022FBD7220E21BC200EF01DFB0022C1
:105890000F21BC200EF018FB22461121BC200EF077
:1058A00013FB2A461221BC200EF00EFB002214210D
:1058B000BC200EF009FB03223C21BC200EF004FBAF
:1058C00011223D21BC200EF0FFFA3E221146BC20E1
:1058D0000EF0FAFA02223F21BC200EF0F5FA542213
:1058E000FF21BC200EF0F0FA4D22FF21BC200EF06B
:1058F000EBFA0122CE21BC200EF0E6FA1822CF21CD
:10590000BC200EF0E1FA0122D021BC200EF0DCFA1E
:105910000022FF21BC200EF0D7FAF0220221BC2089
:105920000EF0D2FA84220321BC200EF0CDFA04221C
:105930000D21BC200EF0C8FA5422FF21BC200EF02D
:10594000C3FA4D22FF21BC200EF0BEFA0022FF2137
:10595000BC200EF0B9FABDE87040014805F0D0BE99
:10596000A81D022002220D21BC200EF0ADBA70B598
:10597000D0F8BC42054694F81C0240B9D4F818028D
:1059800028B1607A18B90121284603F064FD81210D
:10599000284603F060FD607A022809D1812128465B
:1059A00003F059FD2846BDE87040012103F053BDC6
:1059B00070BD000070B5D0F8BC4205460121D4F896
:1059C0001402C4F83402D4F81802C4F83802284685
:1059D00003F04EFC1F280DD12849D4F8100288424C
:1059E00008D194F81D12012904D894F81E0208B1B8
:1059F000102809D994F81D1220230522284601F009
:105A0000AEF90220607209E004F21F22284600F07D
:105A1000A3FE0028207A08DA052804D02846BDE82D
:105A20007040FFF7A4BF012121E0022824D0012803
:105A300022D0032820D0E668C6B1D5F8BC1228468B
:105A400004F11002D1F81832B34200D33346D1F832
:105A50003842A41BC1F83842002481F83C42042497
:105A60000C72BDE87040812103F02EBD0021284654
:105A7000BDE8704000F09CB870BD00005553424333
:105A800010B50446D0F8BC02407A022809D00906B5
:105A900011D501280FD02046BDE81040012100F0AB
:105AA00087B88121204603F0D6FC2046BDE810408F
:105AB000012103F0D0BC10BD10B5D0F8BC220446C3
:105AC000107A022805D0032801D0042810D1002123
:105AD00009E092F81D12204602F21F2200F03CFE5F
